{"abi":[{"type":"constructor","inputs":[],"stateMutability":"nonpayable"},{"type":"function","name":"allowance","inputs":[{"name":"tokenOwner","type":"address","internalType":"address"},{"name":"spender","type":"address","internalType":"address"}],"outputs":[{"name":"","type":"uint256","internalType":"uint256"}],"stateMutability":"view"},{"type":"function","name":"approve","inputs":[{"name":"spender","type":"address","internalType":"address"},{"name":"amount","type":"uint256","internalType":"uint256"}],"outputs":[{"name":"","type":"bool","internalType":"bool"}],"stateMutability":"nonpayable"},{"type":"function","name":"balanceOf","inputs":[{"name":"account","type":"address","internalType":"address"}],"outputs":[{"name":"","type":"uint256","internalType":"uint256"}],"stateMutability":"view"},{"type":"function","name":"burn","inputs":[{"name":"from","type":"address","internalType":"address"},{"name":"amount","type":"uint256","internalType":"uint256"}],"outputs":[],"stateMutability":"nonpayable"},{"type":"function","name":"decimals","inputs":[],"outputs":[{"name":"","type":"uint8","internalType":"uint8"}],"stateMutability":"view"},{"type":"function","name":"mint","inputs":[{"name":"to","type":"address","internalType":"address"},{"name":"amount","type":"uint256","internalType":"uint256"}],"outputs":[],"stateMutability":"nonpayable"},{"type":"function","name":"name","inputs":[],"outputs":[{"name":"","type":"string","internalType":"string"}],"stateMutability":"view"},{"type":"function","name":"owner","inputs":[],"outputs":[{"name":"","type":"address","internalType":"address"}],"stateMutability":"view"},{"type":"function","name":"symbol","inputs":[],"outputs":[{"name":"","type":"string","internalType":"string"}],"stateMutability":"view"},{"type":"function","name":"totalSupply","inputs":[],"outputs":[{"name":"","type":"uint256","internalType":"uint256"}],"stateMutability":"view"},{"type":"function","name":"transfer","inputs":[{"name":"to","type":"address","internalType":"address"},{"name":"amount","type":"uint256","internalType":"uint256"}],"outputs":[{"name":"","type":"bool","internalType":"bool"}],"stateMutability":"nonpayable"},{"type":"event","name":"Approval","inputs":[{"name":"owner","type":"address","indexed":true,"internalType":"address"},{"name":"spender","type":"address","indexed":true,"internalType":"address"},{"name":"value","type":"uint256","indexed":false,"internalType":"uint256"}],"anonymous":false},{"type":"event","name":"Transfer","inputs":[{"name":"from","type":"address","indexed":true,"internalType":"address"},{"name":"to","type":"address","indexed":true,"internalType":"address"},{"name":"value","type":"uint256","indexed":false,"internalType":"uint256"}],"anonymous":false}],"bytecode":{"object":"0x60a060405234801561001057600080fd5b503373ffffffffffffffffffffffffffffffffffffffff1660808173ffffffffffffffffffffffffffffffffffffffff1681525050608051610ded61006e600039600081816103770152818161052601526105830152610ded6000f3fe608060405234801561001057600080fd5b50600436106100a95760003560e01c806370a082311161007157806370a08231146101545780638da5cb5b1461018457806395d89b41146101a25780639dc29fac146101c0578063a9059cbb146101dc578063dd62ed3e1461020c576100a9565b806306fdde03146100ae578063095ea7b3146100cc57806318160ddd146100fc578063313ce5671461011a57806340c10f1914610138575b600080fd5b6100b661023c565b6040516100c39190610a1f565b60405180910390f35b6100e660048036038101906100e19190610ada565b610275565b6040516100f39190610b35565b60405180910390f35b610104610367565b6040516101119190610b5f565b60405180910390f35b610122610370565b60405161012f9190610b96565b60405180910390f35b610152600480360381019061014d9190610ada565b610375565b005b61016e60048036038101906101699190610bb1565b6104db565b60405161017b9190610b5f565b60405180910390f35b61018c610524565b6040516101999190610bed565b60405180910390f35b6101aa610548565b6040516101b79190610a1f565b60405180910390f35b6101da60048036038101906101d59190610ada565b610581565b005b6101f660048036038101906101f19190610ada565b610769565b6040516102039190610b35565b60405180910390f35b61022660048036038101906102219190610c08565b610908565b6040516102339190610b5f565b60405180910390f35b6040518060400160405280601681526020017f496e7465722d426c6f636b636861696e20546f6b656e0000000000000000000081525081565b600081600260003373ffffffffffffffffffffffffffffffffffffffff1673ffffffffffffffffffffffffffffffffffffffff16815260200190815260200160002060008573ffffffffffffffffffffffffffffffffffffffff1673ffffffffffffffffffffffffffffffffffffffff168152602001908152602001600020819055508273ffffffffffffffffffffffffffffffffffffffff163373ffffffffffffffffffffffffffffffffffffffff167f8c5be1e5ebec7d5bd14f71427d1e84f3dd0314c0f7b2291e5b200ac8c7c3b925846040516103559190610b5f565b60405180910390a36001905092915050565b60008054905090565b601281565b7f000000000000000000000000000000000000000000000000000000000000000073ffffffffffffffffffffffffffffffffffffffff163373ffffffffffffffffffffffffffffffffffffffff1614610403576040517f08c379a00000000000000000000000000000000000000000000000000000000081526004016103fa90610c94565b60405180910390fd5b806000808282546104149190610ce3565b9250508190555080600160008473ffffffffffffffffffffffffffffffffffffffff1673ffffffffffffffffffffffffffffffffffffffff168152602001908152602001600020600082825461046a9190610ce3565b925050819055508173ffffffffffffffffffffffffffffffffffffffff16600073ffffffffffffffffffffffffffffffffffffffff167fddf252ad1be2c89b69c2b068fc378daa952ba7f163c4a11628f55a4df523b3ef836040516104cf9190610b5f565b60405180910390a35050565b6000600160008373ffffffffffffffffffffffffffffffffffffffff1673ffffffffffffffffffffffffffffffffffffffff168152602001908152602001600020549050919050565b7f000000000000000000000000000000000000000000000000000000000000000081565b6040518060400160405280600381526020017f494254000000000000000000000000000000000000000000000000000000000081525081565b7f000000000000000000000000000000000000000000000000000000000000000073ffffffffffffffffffffffffffffffffffffffff163373ffffffffffffffffffffffffffffffffffffffff161461060f576040517f08c379a000000000000000000000000000000000000000000000000000000000815260040161060690610c94565b60405180910390fd5b80600160008473ffffffffffffffffffffffffffffffffffffffff1673ffffffffffffffffffffffffffffffffffffffff168152602001908152602001600020541015610691576040517f08c379a000000000000000000000000000000000000000000000000000000000815260040161068890610d63565b60405180910390fd5b80600160008473ffffffffffffffffffffffffffffffffffffffff1673ffffffffffffffffffffffffffffffffffffffff16815260200190815260200160002060008282546106e09190610d83565b92505081905550806000808282546106f89190610d83565b92505081905550600073ffffffffffffffffffffffffffffffffffffffff168273ffffffffffffffffffffffffffffffffffffffff167fddf252ad1be2c89b69c2b068fc378daa952ba7f163c4a11628f55a4df523b3ef8360405161075d9190610b5f565b60405180910390a35050565b600081600160003373ffffffffffffffffffffffffffffffffffffffff1673ffffffffffffffffffffffffffffffffffffffff1681526020019081526020016000205410156107ed576040517f08c379a00000000000000000000000000000000000000000000000000000000081526004016107e490610d63565b60405180910390fd5b81600160003373ffffffffffffffffffffffffffffffffffffffff1673ffffffffffffffffffffffffffffffffffffffff168152602001908152602001600020600082825461083c9190610d83565b9250508190555081600160008573ffffffffffffffffffffffffffffffffffffffff1673ffffffffffffffffffffffffffffffffffffffff16815260200190815260200160002060008282546108929190610ce3565b925050819055508273ffffffffffffffffffffffffffffffffffffffff163373ffffffffffffffffffffffffffffffffffffffff167fddf252ad1be2c89b69c2b068fc378daa952ba7f163c4a11628f55a4df523b3ef846040516108f69190610b5f565b60405180910390a36001905092915050565b6000600260008473ffffffffffffffffffffffffffffffffffffffff1673ffffffffffffffffffffffffffffffffffffffff16815260200190815260200160002060008373ffffffffffffffffffffffffffffffffffffffff1673ffffffffffffffffffffffffffffffffffffffff16815260200190815260200160002054905092915050565b600081519050919050565b600082825260208201905092915050565b60005b838110156109c95780820151818401526020810190506109ae565b60008484015250505050565b6000601f19601f8301169050919050565b60006109f18261098f565b6109fb818561099a565b9350610a0b8185602086016109ab565b610a14816109d5565b840191505092915050565b60006020820190508181036000830152610a3981846109e6565b905092915050565b600080fd5b600073ffffffffffffffffffffffffffffffffffffffff82169050919050565b6000610a7182610a46565b9050919050565b610a8181610a66565b8114610a8c57600080fd5b50565b600081359050610a9e81610a78565b92915050565b6000819050919050565b610ab781610aa4565b8114610ac257600080fd5b50565b600081359050610ad481610aae565b92915050565b60008060408385031215610af157610af0610a41565b5b6000610aff85828601610a8f565b9250506020610b1085828601610ac5565b9150509250929050565b60008115159050919050565b610b2f81610b1a565b82525050565b6000602082019050610b4a6000830184610b26565b92915050565b610b5981610aa4565b82525050565b6000602082019050610b746000830184610b50565b92915050565b600060ff82169050919050565b610b9081610b7a565b82525050565b6000602082019050610bab6000830184610b87565b92915050565b600060208284031215610bc757610bc6610a41565b5b6000610bd584828501610a8f565b91505092915050565b610be781610a66565b82525050565b6000602082019050610c026000830184610bde565b92915050565b60008060408385031215610c1f57610c1e610a41565b5b6000610c2d85828601610a8f565b9250506020610c3e85828601610a8f565b9150509250929050565b7f4f6e6c79206f776e657200000000000000000000000000000000000000000000600082015250565b6000610c7e600a8361099a565b9150610c8982610c48565b602082019050919050565b60006020820190508181036000830152610cad81610c71565b9050919050565b7f4e487b7100000000000000000000000000000000000000000000000000000000600052601160045260246000fd5b6000610cee82610aa4565b9150610cf983610aa4565b9250828201905080821115610d1157610d10610cb4565b5b92915050565b7f496e73756666696369656e742062616c616e6365000000000000000000000000600082015250565b6000610d4d60148361099a565b9150610d5882610d17565b602082019050919050565b60006020820190508181036000830152610d7c81610d40565b9050919050565b6000610d8e82610aa4565b9150610d9983610aa4565b9250828203905081811115610db157610db0610cb4565b5b9291505056fea2646970667358221220d84bec0d571c90bf3b0a9b4cdea4dac0e3acb0aff266ad2255306a712f23f8b464736f6c63430008130033","linkReferences":{}},"methodIdentifiers":{"allowance(address,address)":"dd62ed3e","approve(address,uint256)":"095ea7b3","balanceOf(address)":"70a08231","burn(address,uint256)":"9dc29fac","decimals()":"313ce567","mint(address,uint256)":"40c10f19","name()":"06fdde03","owner()":"8da5cb5b","symbol()":"95d89b41","totalSupply()":"18160ddd","transfer(address,uint256)":"a9059cbb"},"id":0}